{
  "address": "0x68d4e28e8cDeaD635286629AEFE34c3Bf4Be75AA",
  "abi": [
    {
      "anonymous": false,
      "inputs": [
        {
          "indexed": false,
          "internalType": "string",
          "name": "",
          "type": "string"
        },
        {
          "indexed": false,
          "internalType": "string",
          "name": "",
          "type": "string"
        }
      ],
      "name": "DIDAddAssertion",
      "type": "event"
    },
    {
      "anonymous": false,
      "inputs": [
        {
          "indexed": false,
          "internalType": "string",
          "name": "",
          "type": "string"
        },
        {
          "indexed": false,
          "internalType": "string",
          "name": "",
          "type": "string"
        }
      ],
      "name": "DIDAddAuthentication",
      "type": "event"
    },
    {
      "anonymous": false,
      "inputs": [
        {
          "indexed": false,
          "internalType": "string",
          "name": "",
          "type": "string"
        },
        {
          "indexed": false,
          "internalType": "string",
          "name": "",
          "type": "string"
        }
      ],
      "name": "DIDAddContext",
      "type": "event"
    },
    {
      "anonymous": false,
      "inputs": [
        {
          "indexed": false,
          "internalType": "string",
          "name": "",
          "type": "string"
        },
        {
          "indexed": false,
          "internalType": "string",
          "name": "",
          "type": "string"
        }
      ],
      "name": "DIDAddController",
      "type": "event"
    },
    {
      "anonymous": false,
      "inputs": [
        {
          "indexed": false,
          "internalType": "string",
          "name": "",
          "type": "string"
        },
        {
          "indexed": false,
          "internalType": "string",
          "name": "",
          "type": "string"
        }
      ],
      "name": "DIDAddVerificationMethod",
      "type": "event"
    },
    {
      "anonymous": false,
      "inputs": [
        {
          "indexed": false,
          "internalType": "string",
          "name": "",
          "type": "string"
        },
        {
          "indexed": false,
          "internalType": "string",
          "name": "",
          "type": "string"
        }
      ],
      "name": "DIDCreateDID",
      "type": "event"
    },
    {
      "anonymous": false,
      "inputs": [
        {
          "indexed": false,
          "internalType": "string",
          "name": "",
          "type": "string"
        },
        {
          "indexed": false,
          "internalType": "string",
          "name": "",
          "type": "string"
        }
      ],
      "name": "DIDDeleteAssertion",
      "type": "event"
    },
    {
      "anonymous": false,
      "inputs": [
        {
          "indexed": false,
          "internalType": "string",
          "name": "",
          "type": "string"
        },
        {
          "indexed": false,
          "internalType": "string",
          "name": "",
          "type": "string"
        }
      ],
      "name": "DIDDeleteAuthentication",
      "type": "event"
    },
    {
      "anonymous": false,
      "inputs": [
        {
          "indexed": false,
          "internalType": "string",
          "name": "",
          "type": "string"
        },
        {
          "indexed": false,
          "internalType": "string",
          "name": "",
          "type": "string"
        }
      ],
      "name": "DIDDeleteContext",
      "type": "event"
    },
    {
      "anonymous": false,
      "inputs": [
        {
          "indexed": false,
          "internalType": "string",
          "name": "",
          "type": "string"
        },
        {
          "indexed": false,
          "internalType": "string",
          "name": "",
          "type": "string"
        }
      ],
      "name": "DIDDeleteController",
      "type": "event"
    },
    {
      "anonymous": false,
      "inputs": [
        {
          "indexed": false,
          "internalType": "string",
          "name": "",
          "type": "string"
        }
      ],
      "name": "DIDDeleteDID",
      "type": "event"
    },
    {
      "anonymous": false,
      "inputs": [
        {
          "indexed": false,
          "internalType": "string",
          "name": "",
          "type": "string"
        },
        {
          "indexed": false,
          "internalType": "string",
          "name": "",
          "type": "string"
        }
      ],
      "name": "DIDUpdateVerificationMethod",
      "type": "event"
    },
    {
      "inputs": [
        {
          "internalType": "string",
          "name": "did",
          "type": "string"
        },
        {
          "internalType": "string",
          "name": "auth",
          "type": "string"
        },
        {
          "internalType": "bytes",
          "name": "sig",
          "type": "bytes"
        }
      ],
      "name": "addAssertion",
      "outputs": [],
      "stateMutability": "nonpayable",
      "type": "function"
    },
    {
      "inputs": [
        {
          "internalType": "string",
          "name": "did",
          "type": "string"
        },
        {
          "internalType": "string",
          "name": "auth",
          "type": "string"
        },
        {
          "internalType": "bytes",
          "name": "sig",
          "type": "bytes"
        }
      ],
      "name": "addAuthentication",
      "outputs": [],
      "stateMutability": "nonpayable",
      "type": "function"
    },
    {
      "inputs": [
        {
          "internalType": "string",
          "name": "did",
          "type": "string"
        },
        {
          "internalType": "string",
          "name": "ctx",
          "type": "string"
        },
        {
          "internalType": "bytes",
          "name": "sig",
          "type": "bytes"
        }
      ],
      "name": "addContext",
      "outputs": [],
      "stateMutability": "nonpayable",
      "type": "function"
    },
    {
      "inputs": [
        {
          "internalType": "string",
          "name": "did",
          "type": "string"
        },
        {
          "internalType": "string",
          "name": "controller",
          "type": "string"
        },
        {
          "internalType": "bytes",
          "name": "controllerPublicKey",
          "type": "bytes"
        },
        {
          "internalType": "bytes",
          "name": "sig",
          "type": "bytes"
        }
      ],
      "name": "addController",
      "outputs": [],
      "stateMutability": "nonpayable",
      "type": "function"
    },
    {
      "inputs": [
        {
          "internalType": "bytes32",
          "name": "",
          "type": "bytes32"
        }
      ],
      "name": "assertions",
      "outputs": [
        {
          "internalType": "bytes",
          "name": "",
          "type": "bytes"
        }
      ],
      "stateMutability": "view",
      "type": "function"
    },
    {
      "inputs": [
        {
          "internalType": "bytes32",
          "name": "",
          "type": "bytes32"
        }
      ],
      "name": "authentications",
      "outputs": [
        {
          "internalType": "bytes",
          "name": "",
          "type": "bytes"
        }
      ],
      "stateMutability": "view",
      "type": "function"
    },
    {
      "inputs": [
        {
          "internalType": "string",
          "name": "did",
          "type": "string"
        }
      ],
      "name": "checkDidFormat",
      "outputs": [
        {
          "internalType": "bool",
          "name": "",
          "type": "bool"
        }
      ],
      "stateMutability": "pure",
      "type": "function"
    },
    {
      "inputs": [
        {
          "internalType": "bytes32",
          "name": "",
          "type": "bytes32"
        }
      ],
      "name": "contexts",
      "outputs": [
        {
          "internalType": "bytes",
          "name": "",
          "type": "bytes"
        }
      ],
      "stateMutability": "view",
      "type": "function"
    },
    {
      "inputs": [
        {
          "internalType": "bytes32",
          "name": "",
          "type": "bytes32"
        }
      ],
      "name": "controllerPKs",
      "outputs": [
        {
          "internalType": "bytes",
          "name": "",
          "type": "bytes"
        }
      ],
      "stateMutability": "view",
      "type": "function"
    },
    {
      "inputs": [
        {
          "internalType": "bytes32",
          "name": "",
          "type": "bytes32"
        }
      ],
      "name": "controllers",
      "outputs": [
        {
          "internalType": "string",
          "name": "",
          "type": "string"
        }
      ],
      "stateMutability": "view",
      "type": "function"
    },
    {
      "inputs": [
        {
          "internalType": "bytes",
          "name": "publicKey",
          "type": "bytes"
        },
        {
          "internalType": "string",
          "name": "controller",
          "type": "string"
        },
        {
          "internalType": "bytes",
          "name": "controllerPublicKey",
          "type": "bytes"
        }
      ],
      "name": "create",
      "outputs": [],
      "stateMutability": "nonpayable",
      "type": "function"
    },
    {
      "inputs": [
        {
          "internalType": "string",
          "name": "did",
          "type": "string"
        },
        {
          "internalType": "string",
          "name": "auth",
          "type": "string"
        },
        {
          "internalType": "bytes",
          "name": "sig",
          "type": "bytes"
        }
      ],
      "name": "deleteAssertion",
      "outputs": [],
      "stateMutability": "nonpayable",
      "type": "function"
    },
    {
      "inputs": [
        {
          "internalType": "string",
          "name": "did",
          "type": "string"
        },
        {
          "internalType": "string",
          "name": "auth",
          "type": "string"
        },
        {
          "internalType": "bytes",
          "name": "sig",
          "type": "bytes"
        }
      ],
      "name": "deleteAuthentication",
      "outputs": [],
      "stateMutability": "nonpayable",
      "type": "function"
    },
    {
      "inputs": [
        {
          "internalType": "string",
          "name": "did",
          "type": "string"
        },
        {
          "internalType": "string",
          "name": "ctx",
          "type": "string"
        },
        {
          "internalType": "bytes",
          "name": "sig",
          "type": "bytes"
        }
      ],
      "name": "deleteContext",
      "outputs": [],
      "stateMutability": "nonpayable",
      "type": "function"
    },
    {
      "inputs": [
        {
          "internalType": "string",
          "name": "did",
          "type": "string"
        },
        {
          "internalType": "string",
          "name": "controller",
          "type": "string"
        },
        {
          "internalType": "bytes",
          "name": "sig",
          "type": "bytes"
        }
      ],
      "name": "deleteController",
      "outputs": [],
      "stateMutability": "nonpayable",
      "type": "function"
    },
    {
      "inputs": [
        {
          "internalType": "string",
          "name": "did",
          "type": "string"
        },
        {
          "internalType": "string",
          "name": "vmId",
          "type": "string"
        },
        {
          "internalType": "bytes",
          "name": "sig",
          "type": "bytes"
        }
      ],
      "name": "deleteVerificationMethod",
      "outputs": [],
      "stateMutability": "nonpayable",
      "type": "function"
    },
    {
      "inputs": [
        {
          "internalType": "string",
          "name": "",
          "type": "string"
        }
      ],
      "name": "didExist",
      "outputs": [
        {
          "internalType": "bool",
          "name": "",
          "type": "bool"
        }
      ],
      "stateMutability": "view",
      "type": "function"
    },
    {
      "inputs": [
        {
          "internalType": "address",
          "name": "addr",
          "type": "address"
        }
      ],
      "name": "getDid",
      "outputs": [
        {
          "internalType": "bytes",
          "name": "",
          "type": "bytes"
        }
      ],
      "stateMutability": "pure",
      "type": "function"
    },
    {
      "inputs": [
        {
          "internalType": "string",
          "name": "did",
          "type": "string"
        },
        {
          "internalType": "string",
          "name": "vmId",
          "type": "string"
        },
        {
          "internalType": "string",
          "name": "vmType",
          "type": "string"
        },
        {
          "internalType": "string",
          "name": "controller",
          "type": "string"
        },
        {
          "internalType": "string",
          "name": "pkKey",
          "type": "string"
        },
        {
          "internalType": "string",
          "name": "pkValue",
          "type": "string"
        },
        {
          "internalType": "bytes",
          "name": "sig",
          "type": "bytes"
        }
      ],
      "name": "operateVerificationMethod",
      "outputs": [],
      "stateMutability": "nonpayable",
      "type": "function"
    },
    {
      "inputs": [
        {
          "internalType": "bytes",
          "name": "publicKey",
          "type": "bytes"
        }
      ],
      "name": "publicKey2Addr",
      "outputs": [
        {
          "internalType": "address",
          "name": "",
          "type": "address"
        }
      ],
      "stateMutability": "pure",
      "type": "function"
    },
    {
      "inputs": [
        {
          "internalType": "string",
          "name": "did",
          "type": "string"
        }
      ],
      "name": "readAssertion",
      "outputs": [
        {
          "internalType": "string",
          "name": "",
          "type": "string"
        }
      ],
      "stateMutability": "view",
      "type": "function"
    },
    {
      "inputs": [
        {
          "internalType": "string",
          "name": "did",
          "type": "string"
        }
      ],
      "name": "readAuthentication",
      "outputs": [
        {
          "internalType": "string",
          "name": "",
          "type": "string"
        }
      ],
      "stateMutability": "view",
      "type": "function"
    },
    {
      "inputs": [
        {
          "internalType": "string",
          "name": "did",
          "type": "string"
        }
      ],
      "name": "readContext",
      "outputs": [
        {
          "internalType": "string",
          "name": "",
          "type": "string"
        }
      ],
      "stateMutability": "view",
      "type": "function"
    },
    {
      "inputs": [
        {
          "internalType": "string",
          "name": "did",
          "type": "string"
        }
      ],
      "name": "readController",
      "outputs": [
        {
          "internalType": "string",
          "name": "",
          "type": "string"
        }
      ],
      "stateMutability": "view",
      "type": "function"
    },
    {
      "inputs": [
        {
          "internalType": "string",
          "name": "did",
          "type": "string"
        }
      ],
      "name": "readVerificationMethod",
      "outputs": [
        {
          "internalType": "string",
          "name": "",
          "type": "string"
        }
      ],
      "stateMutability": "view",
      "type": "function"
    },
    {
      "inputs": [
        {
          "internalType": "string",
          "name": "did",
          "type": "string"
        }
      ],
      "name": "resolve",
      "outputs": [
        {
          "internalType": "string",
          "name": "",
          "type": "string"
        }
      ],
      "stateMutability": "view",
      "type": "function"
    },
    {
      "inputs": [
        {
          "internalType": "string",
          "name": "did",
          "type": "string"
        },
        {
          "internalType": "bytes",
          "name": "sig",
          "type": "bytes"
        }
      ],
      "name": "revoke",
      "outputs": [],
      "stateMutability": "nonpayable",
      "type": "function"
    },
    {
      "inputs": [
        {
          "internalType": "address",
          "name": "account",
          "type": "address"
        }
      ],
      "name": "toString",
      "outputs": [
        {
          "internalType": "string",
          "name": "",
          "type": "string"
        }
      ],
      "stateMutability": "pure",
      "type": "function"
    },
    {
      "inputs": [
        {
          "internalType": "bytes",
          "name": "data",
          "type": "bytes"
        }
      ],
      "name": "toString",
      "outputs": [
        {
          "internalType": "string",
          "name": "",
          "type": "string"
        }
      ],
      "stateMutability": "pure",
      "type": "function"
    },
    {
      "inputs": [
        {
          "internalType": "string",
          "name": "",
          "type": "string"
        },
        {
          "internalType": "bytes32",
          "name": "",
          "type": "bytes32"
        }
      ],
      "name": "verificationMethods",
      "outputs": [
        {
          "internalType": "bytes",
          "name": "",
          "type": "bytes"
        }
      ],
      "stateMutability": "view",
      "type": "function"
    }
  ],
  "transactionHash": "0x3313a2fa0005bdc1f70e4a059b39925203b4c8e1e6b2566334bdfa370d565d86",
  "args": [],
  "numDeployments": 2,
  "solcInputHash": "1a822cb75e107dbed32e4be8e4876037",
  "bytecode": "0x608060405234801561001057600080fd5b50613a09806100206000396000f3fe608060405234801561001057600080fd5b50600436106101da5760003560e01c806381c491df11610104578063d60715b5116100a2578063e7ba307e11610071578063e7ba307e1461042e578063f6d36f6114610441578063fbae406a14610454578063fc3ca4451461046757600080fd5b8063d60715b5146103e2578063dcc35040146103f5578063decf32eb14610408578063e70f56311461041b57600080fd5b80639ec4d358116100de5780639ec4d3581461036b578063be7438721461037e578063c541384714610391578063d38cca61146103cf57600080fd5b806381c491df14610332578063828419d61461034557806394ea6e2a1461035857600080fd5b8063461a44781161017c57806362ea1b221161014b57806362ea1b22146102e657806368b8a9b8146102f957806371aad10d1461030c5780637616ec441461031f57600080fd5b8063461a44781461029a57806349dec017146102ad57806356ca623e146102c05780635c70834e146102d357600080fd5b806313677d84116101b857806313677d8414610230578063231356fd146102615780633f7885dd1461027457806345560dcb1461028757600080fd5b8063021d248e146101df5780630eb0b76914610208578063100c40881461021d575b600080fd5b6101f26101ed366004612fe9565b61047a565b6040516101ff9190613076565b60405180910390f35b61021b610216366004613089565b6105e1565b005b61021b61022b3660046131a4565b6107a6565b61024961023e366004612fe9565b805160209091012090565b6040516001600160a01b0390911681526020016101ff565b61021b61026f3660046131a4565b6109c6565b61021b6102823660046131a4565b610c00565b6101f261029536600461322c565b610e67565b6101f26102a8366004612fe9565b610f01565b6101f26102bb366004612fe9565b6111d3565b6101f26102ce366004613245565b61137b565b6101f26102e136600461322c565b6113b9565b61021b6102f43660046131a4565b6113d2565b61021b61030736600461326e565b611533565b6101f261031a366004612fe9565b611713565b61021b61032d3660046131a4565b6118b8565b6101f261034036600461322c565b611ab0565b6101f2610353366004612fe9565b611ac9565b61021b6103663660046131a4565b611be0565b61021b6103793660046131a4565b611d37565b6101f261038c366004612fe9565b611f24565b6103bf61039f366004612fe9565b805160208183018101805160008252928201919093012091525460ff1681565b60405190151581526020016101ff565b6101f26103dd366004613245565b61203b565b6101f26103f036600461322c565b61206c565b61021b6104033660046131a4565b612085565b6101f2610416366004612fe9565b6121dc565b6101f261042936600461331b565b6122f3565b6103bf61043c366004612fe9565b612327565b61021b61044f366004613360565b612342565b6101f261046236600461322c565b6124ff565b61021b61047536600461340d565b612518565b60608160008160405161048d91906134a2565b9081526040519081900360200190205460ff166104c55760405162461bcd60e51b81526004016104bc906134be565b60405180910390fd5b6040805180820182526001808252605b60f81b6020830152915190916000916104ef9087906134a2565b9081526020016040518091039020905060005b61050b82612728565b81101561059a576040805180820190915260018152601160f91b602082015283906002600061053a8686612732565b815260200190815260200160002060405180604001604052806002815260200161088b60f21b8152506040516020016105769493929190613519565b60405160208183030381529060405292508080610592906135e2565b915050610502565b50605d60f81b82600184516105af91906135fb565b815181106105bf576105bf61360e565b60200101906001600160f81b031916908160001a905350909250505b50919050565b86816000826040516105f391906134a2565b9081526040519081900360200190205460ff166106225760405162461bcd60e51b81526004016104bc906134be565b600061062d3361203b565b80519060200120905061065f8160038560405161064a91906134a2565b90815260405190819003602001902090612745565b61067b5760405162461bcd60e51b81526004016104bc90613624565b60008181526005602052604081208054610694906134e5565b80601f01602080910402602001604051908101604052809291908181526020018280546106c0906134e5565b801561070d5780601f106106e25761010080835404028352916020019161070d565b820191906000526020600020905b8154815290600101906020018083116106f057829003601f168201915b50505050509050600061072582805160209091012090565b905061078160028660405161073a91906134a2565b602060405180830381855afa158015610757573d6000803e3d6000fd5b5050506040513d601f19601f8201168201806040525081019061077a919061364c565b858361275d565b61078a57600080fd5b6107988c8c8c8c8c8c612844565b505050505050505050505050565b82816000826040516107b891906134a2565b9081526040519081900360200190205460ff166107e75760405162461bcd60e51b81526004016104bc906134be565b60006107f23361203b565b80519060200120905061080f8160038560405161064a91906134a2565b61082b5760405162461bcd60e51b81526004016104bc90613624565b60008181526005602052604081208054610844906134e5565b80601f0160208091040260200160405190810160405280929190818152602001828054610870906134e5565b80156108bd5780601f10610892576101008083540402835291602001916108bd565b820191906000526020600020905b8154815290600101906020018083116108a057829003601f168201915b5050505050905060006108d582805160209091012090565b90506108ea60028660405161073a91906134a2565b6108f357600080fd5b8651602088012060405161091190829060089061064a908d906134a2565b6109585760405162461bcd60e51b8152602060048201526018602482015277185d5d1a195b9d1a58d85d1a5bdb881b9bdd08195e1a5cdd60421b60448201526064016104bc565b6109818160088b60405161096c91906134a2565b90815260405190819003602001902090612b41565b507f352839fb572124a8f293b0ad18741d4206ba417bc6fd1631da1a6506f915503589896040516109b3929190613665565b60405180910390a1505050505050505050565b82816000826040516109d891906134a2565b9081526040519081900360200190205460ff16610a075760405162461bcd60e51b81526004016104bc906134be565b6000610a123361203b565b805190602001209050610a2f8160038560405161064a91906134a2565b610a4b5760405162461bcd60e51b81526004016104bc90613624565b60008181526005602052604081208054610a64906134e5565b80601f0160208091040260200160405190810160405280929190818152602001828054610a90906134e5565b8015610add5780601f10610ab257610100808354040283529160200191610add565b820191906000526020600020905b815481529060010190602001808311610ac057829003601f168201915b505050505090506000610af582805160209091012090565b9050610b0a60028660405161073a91906134a2565b610b1357600080fd5b86516020880120604051610b3190829060039061064a908d906134a2565b15610b6a5760405162461bcd60e51b81526020600482015260096024820152681b9bdd08195e1a5cdd60ba1b60448201526064016104bc565b610b7e8160038b60405161096c91906134a2565b506040805160208082018352600080835284815260049091529190912090610ba690826136e2565b506040805160208082018352600080835284815260059091529190912090610bce90826136e2565b507f02b87b52be2f3abf7960802afb12dc97b5c318e55f395547aaeef920d4b362ba89896040516109b3929190613665565b8281600082604051610c1291906134a2565b9081526040519081900360200190205460ff16610c415760405162461bcd60e51b81526004016104bc906134be565b6000610c4c3361203b565b805190602001209050610c698160038560405161064a91906134a2565b610c855760405162461bcd60e51b81526004016104bc90613624565b60008181526005602052604081208054610c9e906134e5565b80601f0160208091040260200160405190810160405280929190818152602001828054610cca906134e5565b8015610d175780601f10610cec57610100808354040283529160200191610d17565b820191906000526020600020905b815481529060010190602001808311610cfa57829003601f168201915b505050505090506000610d2f82805160209091012090565b9050610d4460028660405161073a91906134a2565b610d4d57600080fd5b6000600288604051610d5f91906134a2565b602060405180830381855afa158015610d7c573d6000803e3d6000fd5b5050506040513d601f19601f82011682018060405250810190610d9f919061364c565b9050610db58160078b60405161064a91906134a2565b610e015760405162461bcd60e51b815260206004820152601f60248201527f566572696669636174696f6e4d6574686f64204964206e6f742065786973740060448201526064016104bc565b610e158160078b60405161096c91906134a2565b506040518060200160405280600081525060068a604051610e3691906134a2565b908152604080516020928190038301902060008581529252902090610e5b90826136e2565b50505050505050505050565b60026020526000908152604090208054610e80906134e5565b80601f0160208091040260200160405190810160405280929190818152602001828054610eac906134e5565b8015610ef95780601f10610ece57610100808354040283529160200191610ef9565b820191906000526020600020905b815481529060010190602001808311610edc57829003601f168201915b505050505081565b606081600081604051610f1491906134a2565b9081526040519081900360200190205460ff16610f435760405162461bcd60e51b81526004016104bc906134be565b6000604051806040016040528060018152602001607b60f81b8152509050806040518060400160405280600b81526020016a112031b7b73a32bc3a111d60a91b815250610f8f8661047a565b604051806040016040528060018152602001600b60fa1b815250604051602001610fbc94939291906137a2565b60408051601f19818403018152828201825260058352641134b2111d60d91b6020848101919091528251808401845260018152601160f91b81830152835180850185526002815261088b60f21b818401529351929550611024948694909391928a92016137f9565b60408051601f198184030181528282018252600d83526c1131b7b73a3937b63632b9111d60991b602084810191909152825180840190935260018352601160f91b90830152925082919061107787611f24565b60405180604001604052806002815260200161088b60f21b8152506040516020016110a69594939291906137f9565b60408051601f198184030181528282019091526015825274113b32b934b334b1b0ba34b7b726b2ba3437b2111d60591b6020830152915081906110e8866111d3565b604051806040016040528060018152602001600b60fa1b81525060405160200161111594939291906137a2565b60408051601f1981840301815282820190915260118252701130baba3432b73a34b1b0ba34b7b7111d60791b602083015291508190611153866121dc565b604051806040016040528060018152602001600b60fa1b81525060405160200161118094939291906137a2565b6040516020818303038152906040529050607d60f81b81600183516111a591906135fb565b815181106111b5576111b561360e565b60200101906001600160f81b031916908160001a9053509392505050565b6060816000816040516111e691906134a2565b9081526040519081900360200190205460ff166112155760405162461bcd60e51b81526004016104bc906134be565b60408051808201825260018152605b60f81b6020820152905160009060079061123f9087906134a2565b9081526020016040518091039020905060005b61125b82612728565b81101561059a57600060068760405161127491906134a2565b908152604051908190036020019020600061128f8585612732565b815260200190815260200160002080546112a8906134e5565b80601f01602080910402602001604051908101604052809291908181526020018280546112d4906134e5565b80156113215780601f106112f657610100808354040283529160200191611321565b820191906000526020600020905b81548152906001019060200180831161130457829003601f168201915b505050505090508381604051806040016040528060018152602001600b60fa1b81525060405160200161135693929190613864565b6040516020818303038152906040529350508080611373906135e2565b915050611252565b604051606082811b6bffffffffffffffffffffffff19166020830152906113b390603401604051602081830303815290604052611713565b92915050565b60056020526000908152604090208054610e80906134e5565b82816000826040516113e491906134a2565b9081526040519081900360200190205460ff166114135760405162461bcd60e51b81526004016104bc906134be565b600061141e3361203b565b80519060200120905061143b8160038560405161064a91906134a2565b6114575760405162461bcd60e51b81526004016104bc90613624565b60008181526005602052604081208054611470906134e5565b80601f016020809104026020016040519081016040528092919081815260200182805461149c906134e5565b80156114e95780601f106114be576101008083540402835291602001916114e9565b820191906000526020600020905b8154815290600101906020018083116114cc57829003601f168201915b50505050509050600061150182805160209091012090565b905061151660028660405161073a91906134a2565b61151f57600080fd5b6115298888612b4d565b5050505050505050565b838160008260405161154591906134a2565b9081526040519081900360200190205460ff166115745760405162461bcd60e51b81526004016104bc906134be565b600061157f3361203b565b80519060200120905061159c8160038560405161064a91906134a2565b6115b85760405162461bcd60e51b81526004016104bc90613624565b600081815260056020526040812080546115d1906134e5565b80601f01602080910402602001604051908101604052809291908181526020018280546115fd906134e5565b801561164a5780601f1061161f5761010080835404028352916020019161164a565b820191906000526020600020905b81548152906001019060200180831161162d57829003601f168201915b50505050509050600061166282805160209091012090565b905061167760028660405161073a91906134a2565b61168057600080fd5b61169b888051906020012060038b60405161064a91906134a2565b6116d75760405162461bcd60e51b815260206004820152600d60248201526c185b1c9958591e48195e1a5cdd609a1b60448201526064016104bc565b6116e2898989612bfc565b7fbbab1b0a32c85fd824eebf9faf3c52497ab90e75484334b9f84e1100f67c604489896040516109b3929190613665565b60408051808201909152601081526f181899199a1a9b1b9c1cb0b131b232b360811b602082015281516060919060009061174e9060026138a7565b67ffffffffffffffff81111561176657611766612f46565b6040519080825280601f01601f191660200182016040528015611790576020820181803683370190505b50905060005b84518110156118b0578260048683815181106117b4576117b461360e565b016020015182516001600160f81b031990911690911c60f81c9081106117dc576117dc61360e565b01602001516001600160f81b031916826117f78360026138a7565b815181106118075761180761360e565b60200101906001600160f81b031916908160001a905350828582815181106118315761183161360e565b602091010151815160f89190911c600f169081106118515761185161360e565b01602001516001600160f81b0319168261186c8360026138a7565b6118779060016138c6565b815181106118875761188761360e565b60200101906001600160f81b031916908160001a905350806118a8816135e2565b915050611796565b509392505050565b82816000826040516118ca91906134a2565b9081526040519081900360200190205460ff166118f95760405162461bcd60e51b81526004016104bc906134be565b60006119043361203b565b8051906020012090506119218160038560405161064a91906134a2565b61193d5760405162461bcd60e51b81526004016104bc90613624565b60008181526005602052604081208054611956906134e5565b80601f0160208091040260200160405190810160405280929190818152602001828054611982906134e5565b80156119cf5780601f106119a4576101008083540402835291602001916119cf565b820191906000526020600020905b8154815290600101906020018083116119b257829003601f168201915b5050505050905060006119e782805160209091012090565b90506119fc60028660405161073a91906134a2565b611a0557600080fd5b86516020880120604051611a23908290600a9061064a908d906134a2565b611a6a5760405162461bcd60e51b8152602060048201526018602482015277185d5d1a195b9d1a58d85d1a5bdb881b9bdd08195e1a5cdd60421b60448201526064016104bc565b611a7e81600a8b60405161096c91906134a2565b507f0575a4a7f74a81f3c502b342a97042841e0e7c1660dfb7dc370ce86b1074796b89896040516109b3929190613665565b60096020526000908152604090208054610e80906134e5565b606081600081604051611adc91906134a2565b9081526040519081900360200190205460ff16611b0b5760405162461bcd60e51b81526004016104bc906134be565b60408051808201825260018152605b60f81b60208201529051600090600a90611b359087906134a2565b9081526020016040518091039020905060005b611b5182612728565b81101561059a576040805180820190915260018152601160f91b60208201528390600b6000611b808686612732565b815260200190815260200160002060405180604001604052806002815260200161088b60f21b815250604051602001611bbc9493929190613519565b60405160208183030381529060405292508080611bd8906135e2565b915050611b48565b8281600082604051611bf291906134a2565b9081526040519081900360200190205460ff16611c215760405162461bcd60e51b81526004016104bc906134be565b6000611c2c3361203b565b805190602001209050611c498160038560405161064a91906134a2565b611c655760405162461bcd60e51b81526004016104bc90613624565b60008181526005602052604081208054611c7e906134e5565b80601f0160208091040260200160405190810160405280929190818152602001828054611caa906134e5565b8015611cf75780601f10611ccc57610100808354040283529160200191611cf7565b820191906000526020600020905b815481529060010190602001808311611cda57829003601f168201915b505050505090506000611d0f82805160209091012090565b9050611d2460028660405161073a91906134a2565b611d2d57600080fd5b6115298888612ca5565b8281600082604051611d4991906134a2565b9081526040519081900360200190205460ff16611d785760405162461bcd60e51b81526004016104bc906134be565b6000611d833361203b565b805190602001209050611da08160038560405161064a91906134a2565b611dbc5760405162461bcd60e51b81526004016104bc90613624565b60008181526005602052604081208054611dd5906134e5565b80601f0160208091040260200160405190810160405280929190818152602001828054611e01906134e5565b8015611e4e5780601f10611e2357610100808354040283529160200191611e4e565b820191906000526020600020905b815481529060010190602001808311611e3157829003601f168201915b505050505090506000611e6682805160209091012090565b9050611e7b60028660405161073a91906134a2565b611e8457600080fd5b86516020880120604051611ea290829060019061064a908d906134a2565b611ede5760405162461bcd60e51b815260206004820152600d60248201526c18dd1e081b9bdd08195e1a5cdd609a1b60448201526064016104bc565b611ef28160018b60405161096c91906134a2565b507f6b007b34ce73f14ba13bddee394124c5e3445545777ce0c2a7645c63b882256289896040516109b3929190613665565b606081600081604051611f3791906134a2565b9081526040519081900360200190205460ff16611f665760405162461bcd60e51b81526004016104bc906134be565b60408051808201825260018152605b60f81b60208201529051600090600390611f909087906134a2565b9081526020016040518091039020905060005b611fac82612728565b81101561059a576040805180820190915260018152601160f91b6020820152839060026000611fdb8686612732565b815260200190815260200160002060405180604001604052806002815260200161088b60f21b8152506040516020016120179493929190613519565b60405160208183030381529060405292508080612033906135e2565b915050611fa3565b60606120468261137b565b60405160200161205691906138d9565b6040516020818303038152906040529050919050565b600b6020526000908152604090208054610e80906134e5565b828160008260405161209791906134a2565b9081526040519081900360200190205460ff166120c65760405162461bcd60e51b81526004016104bc906134be565b60006120d13361203b565b8051906020012090506120ee8160038560405161064a91906134a2565b61210a5760405162461bcd60e51b81526004016104bc90613624565b60008181526005602052604081208054612123906134e5565b80601f016020809104026020016040519081016040528092919081815260200182805461214f906134e5565b801561219c5780601f106121715761010080835404028352916020019161219c565b820191906000526020600020905b81548152906001019060200180831161217f57829003601f168201915b5050505050905060006121b482805160209091012090565b90506121c960028660405161073a91906134a2565b6121d257600080fd5b6115298888612d2c565b6060816000816040516121ef91906134a2565b9081526040519081900360200190205460ff1661221e5760405162461bcd60e51b81526004016104bc906134be565b60408051808201825260018152605b60f81b602082015290516000906008906122489087906134a2565b9081526020016040518091039020905060005b61226482612728565b81101561059a576040805180820190915260018152601160f91b60208201528390600960006122938686612732565b815260200190815260200160002060405180604001604052806002815260200161088b60f21b8152506040516020016122cf9493929190613519565b604051602081830303815290604052925080806122eb906135e2565b91505061225b565b81516020818401810180516006825292820194820194909420919093529091526000908152604090208054610e80906134e5565b6000815160341461233a57506000919050565b506001919050565b818160008260405161235491906134a2565b9081526040519081900360200190205460ff166123835760405162461bcd60e51b81526004016104bc906134be565b600061238e3361203b565b8051906020012090506123ab8160038560405161064a91906134a2565b6123c75760405162461bcd60e51b81526004016104bc90613624565b600081815260056020526040812080546123e0906134e5565b80601f016020809104026020016040519081016040528092919081815260200182805461240c906134e5565b80156124595780601f1061242e57610100808354040283529160200191612459565b820191906000526020600020905b81548152906001019060200180831161243c57829003601f168201915b50505050509050600061247182805160209091012090565b905061248660028660405161073a91906134a2565b61248f57600080fd5b600080886040516124a091906134a2565b908152604051908190036020018120805492151560ff19909316929092179091557f91b4f3ac42eee3434b3a9ef6ae3aeab143380793722a7ff7673cceb1df87660f906124ee908990613076565b60405180910390a150505050505050565b60046020526000908152604090208054610e80906134e5565b600061255986868080601f01602080910402602001604051908101604052809392919081815260200183838082843760009201919091525061023e92505050565b905060006125668261203b565b9050600081905060008160405161257d91906134a2565b9081526040519081900360200190205460ff16156125d15760405162461bcd60e51b8152602060048201526011602482015270191a5908185b1c9958591e48195e1a5cdd607a1b60448201526064016104bc565b612610816040518060400160405280601c81526020017f68747470733a2f2f7777772e77332e6f72672f6e732f6469642f763100000000815250612ca5565b61261986612327565b6126635761265e81828a8a8080601f016020809104026020016040519081016040528093929190818152602001838380828437600092019190915250612bfc92505050565b6126a4565b6126a4818787878080601f016020809104026020016040519081016040528093929190818152602001838380828437600092019190915250612bfc92505050565b60016000826040516126b691906134a2565b9081526040805160209281900383018120805460ff1916941515949094179093558451858301206000908152600490925290207fc3c7b72b23754974738f9287ba8cf93359f1fde4ef533b2b96e9826321f37fbc91612716918491613909565b60405180910390a15050505050505050565b60006113b3825490565b600061273e8383612dce565b9392505050565b6000818152600183016020526040812054151561273e565b60006001600160a01b03821615801590612778575082516041145b61278157600080fd5b6000806000856040815181106127995761279961360e565b01602001516127ac9060f81c601b6139a4565b90506020860151925060408601519150846001600160a01b031660018883868660405160008152602001604052604051612802949392919093845260ff9290921660208401526040830152606082015260800190565b6020604051602081039080840390855afa158015612824573d6000803e3d6000fd5b505050602060405103516001600160a01b03161493505050509392505050565b6000604051806040016040528060088152602001673d9134b2111d101160c11b8152508660405180604001604052806002815260200161088b60f21b81525060405160200161289593929190613864565b60408051601f1981840301815282820182526009835268113a3cb832911d101160b91b602084810191909152825180840184526002815261088b60f21b8183015292519194506000936128ec9390928a9201613864565b60408051601f198184030181528282018252600f83526e1131b7b73a3937b63632b9111d101160891b602084810191909152825180840184526002815261088b60f21b8183015292519194506000936129499390928a9201613864565b60408051601f19818403018152828201825260018352601160f91b602084810191909152825180840184526004815263111d101160e11b81830152835180850185526002815261227d60f01b8184015293519295506000946129b29490938b938b9291016137f9565b60405160208183030381529060405290506000848484846040516020016129dc94939291906137a2565b6040516020818303038152906040529050600060028b6040516129ff91906134a2565b602060405180830381855afa158015612a1c573d6000803e3d6000fd5b5050506040513d601f19601f82011682018060405250810190612a3f919061364c565b9050612a558160078e60405161064a91906134a2565b15612a98577fff66a5005b4ccd6dd4523b1cf78542f24c8d5f2c3f88172df9cb10b1affa1eb88c83604051612a8b929190613665565b60405180910390a1612afc565b612ac18160078e604051612aac91906134a2565b90815260405190819003602001902090612df8565b507f2131897197c045deeb643fcf11857033e2e17a6abaf87a7c8d2c0209747da52c8c83604051612af3929190613665565b60405180910390a15b8160068d604051612b0d91906134a2565b908152604080516020928190038301902060008581529252902090612b3290826136e2565b50505050505050505050505050565b600061273e8383612e04565b80516020820120604051612b6b908290600a9061064a9087906134a2565b8015612b865750612b868160078560405161064a91906134a2565b15612b9057505050565b612ba481600a85604051612aac91906134a2565b506000818152600b60205260409020612bbd83826136e2565b507facdd6cb720810e6d592cfc9012612aeb59c2cf42bbb61ecd47c550bc6e21de658383604051612bef929190613665565b60405180910390a1505050565b81516020830120604051612c1a90829060039061064a9088906134a2565b612c9f57612c3281600386604051612aac91906134a2565b506000818152600460205260409020612c4b84826136e2565b506000818152600560205260409020612c6483826136e2565b507fbbab1b0a32c85fd824eebf9faf3c52497ab90e75484334b9f84e1100f67c60448484604051612c96929190613665565b60405180910390a15b50505050565b80516020820120604051612cc390829060019061064a9087906134a2565b15612ccd57505050565b612ce181600185604051612aac91906134a2565b506000818152600260205260409020612cfa83826136e2565b507f204b8be294fc8317dce020f12a163546d7849a84d45e9885c57109fa8947d8448383604051612bef929190613665565b80516020820120604051612d4a90829060089061064a9087906134a2565b8015612d655750612d658160078560405161064a91906134a2565b15612d6f57505050565b612d8381600885604051612aac91906134a2565b506000818152600960205260409020612d9c83826136e2565b507f66b9a12bf964d62dd628845d080d864253666cebba5ed5d1a699ce5e3c9d9d3f8383604051612bef929190613665565b6000826000018281548110612de557612de561360e565b9060005260206000200154905092915050565b600061273e8383612ef7565b60008181526001830160205260408120548015612eed576000612e286001836135fb565b8554909150600090612e3c906001906135fb565b9050818114612ea1576000866000018281548110612e5c57612e5c61360e565b9060005260206000200154905080876000018481548110612e7f57612e7f61360e565b6000918252602080832090910192909255918252600188019052604090208390555b8554869080612eb257612eb26139bd565b6001900381819060005260206000200160009055905585600101600086815260200190815260200160002060009055600193505050506113b3565b60009150506113b3565b6000818152600183016020526040812054612f3e575081546001818101845560008481526020808220909301849055845484825282860190935260409020919091556113b3565b5060006113b3565b634e487b7160e01b600052604160045260246000fd5b600082601f830112612f6d57600080fd5b813567ffffffffffffffff80821115612f8857612f88612f46565b604051601f8301601f19908116603f01168101908282118183101715612fb057612fb0612f46565b81604052838152866020858801011115612fc957600080fd5b836020870160208301376000602085830101528094505050505092915050565b600060208284031215612ffb57600080fd5b813567ffffffffffffffff81111561301257600080fd5b61301e84828501612f5c565b949350505050565b60005b83811015613041578181015183820152602001613029565b50506000910152565b60008151808452613062816020860160208601613026565b601f01601f19169290920160200192915050565b60208152600061273e602083018461304a565b600080600080600080600060e0888a0312156130a457600080fd5b873567ffffffffffffffff808211156130bc57600080fd5b6130c88b838c01612f5c565b985060208a01359150808211156130de57600080fd5b6130ea8b838c01612f5c565b975060408a013591508082111561310057600080fd5b61310c8b838c01612f5c565b965060608a013591508082111561312257600080fd5b61312e8b838c01612f5c565b955060808a013591508082111561314457600080fd5b6131508b838c01612f5c565b945060a08a013591508082111561316657600080fd5b6131728b838c01612f5c565b935060c08a013591508082111561318857600080fd5b506131958a828b01612f5c565b91505092959891949750929550565b6000806000606084860312156131b957600080fd5b833567ffffffffffffffff808211156131d157600080fd5b6131dd87838801612f5c565b945060208601359150808211156131f357600080fd5b6131ff87838801612f5c565b9350604086013591508082111561321557600080fd5b5061322286828701612f5c565b9150509250925092565b60006020828403121561323e57600080fd5b5035919050565b60006020828403121561325757600080fd5b81356001600160a01b038116811461273e57600080fd5b6000806000806080858703121561328457600080fd5b843567ffffffffffffffff8082111561329c57600080fd5b6132a888838901612f5c565b955060208701359150808211156132be57600080fd5b6132ca88838901612f5c565b945060408701359150808211156132e057600080fd5b6132ec88838901612f5c565b9350606087013591508082111561330257600080fd5b5061330f87828801612f5c565b91505092959194509250565b6000806040838503121561332e57600080fd5b823567ffffffffffffffff81111561334557600080fd5b61335185828601612f5c565b95602094909401359450505050565b6000806040838503121561337357600080fd5b823567ffffffffffffffff8082111561338b57600080fd5b61339786838701612f5c565b935060208501359150808211156133ad57600080fd5b506133ba85828601612f5c565b9150509250929050565b60008083601f8401126133d657600080fd5b50813567ffffffffffffffff8111156133ee57600080fd5b60208301915083602082850101111561340657600080fd5b9250929050565b60008060008060006060868803121561342557600080fd5b853567ffffffffffffffff8082111561343d57600080fd5b61344989838a016133c4565b9097509550602088013591508082111561346257600080fd5b61346e89838a01612f5c565b9450604088013591508082111561348457600080fd5b50613491888289016133c4565b969995985093965092949392505050565b600082516134b4818460208701613026565b9190910192915050565b6020808252600d908201526c191a59081b9bdd08195e1a5cdd609a1b604082015260600190565b600181811c908216806134f957607f821691505b6020821081036105db57634e487b7160e01b600052602260045260246000fd5b60008551602061352c8285838b01613026565b86519184019161353f8184848b01613026565b8654920191600090613550816134e5565b60018281168015613568576001811461357d576135a9565b60ff19841687528215158302870194506135a9565b8a6000528560002060005b848110156135a157815489820152908301908701613588565b505082870194505b50505050855192506135be8382848901613026565b909101979650505050505050565b634e487b7160e01b600052601160045260246000fd5b6000600182016135f4576135f46135cc565b5060010190565b818103818111156113b3576113b36135cc565b634e487b7160e01b600052603260045260246000fd5b6020808252600e908201526d3737ba1031b7b73a3937b63632b960911b604082015260600190565b60006020828403121561365e57600080fd5b5051919050565b604081526000613678604083018561304a565b828103602084015261368a818561304a565b95945050505050565b601f8211156136dd57600081815260208120601f850160051c810160208610156136ba5750805b601f850160051c820191505b818110156136d9578281556001016136c6565b5050505b505050565b815167ffffffffffffffff8111156136fc576136fc612f46565b6137108161370a84546134e5565b84613693565b602080601f831160018114613745576000841561372d5750858301515b600019600386901b1c1916600185901b1785556136d9565b600085815260208120601f198616915b8281101561377457888601518255948401946001909101908401613755565b50858210156137925787850151600019600388901b60f8161c191681555b5050505050600190811b01905550565b600085516137b4818460208a01613026565b8551908301906137c8818360208a01613026565b85519101906137db818360208901613026565b84519101906137ee818360208801613026565b019695505050505050565b6000865161380b818460208b01613026565b86519083019061381f818360208b01613026565b8651910190613832818360208a01613026565b8551910190613845818360208901613026565b8451910190613858818360208801613026565b01979650505050505050565b60008451613876818460208901613026565b84519083019061388a818360208901613026565b845191019061389d818360208801613026565b0195945050505050565b60008160001904831182151516156138c1576138c16135cc565b500290565b808201808211156113b3576113b36135cc565b673234b21d3439b59d60c11b8152600082516138fc816008850160208701613026565b9190910160080192915050565b60408152600061391c604083018561304a565b60208382038185015260008554613932816134e5565b8085526001828116801561394d576001811461396757613995565b60ff1984168787015282151560051b870186019450613995565b896000528560002060005b8481101561398d578154898201890152908301908701613972565b880187019550505b50929998505050505050505050565b60ff81811683821601908111156113b3576113b36135cc565b634e487b7160e01b600052603160045260246000fdfea2646970667358221220bc4329d237452d1874db73629bf3f696f5e98b7b0cc1d11bf90ef96a94185f2564736f6c63430008100033",
  "devdoc": {
    "kind": "dev",
    "methods": {},
    "version": 1
  },
  "userdoc": {
    "kind": "user",
    "methods": {},
    "version": 1
  },
  "storageLayout": {
    "storage": [
      {
        "astId": 1414,
        "contract": "contracts/reslover.sol:DIDDocument",
        "label": "didExist",
        "offset": 0,
        "slot": "0",
        "type": "t_mapping(t_string_memory_ptr,t_bool)"
      },
      {
        "astId": 1419,
        "contract": "contracts/reslover.sol:DIDDocument",
        "label": "contextSet",
        "offset": 0,
        "slot": "1",
        "type": "t_mapping(t_string_memory_ptr,t_struct(Bytes32Set)204_storage)"
      },
      {
        "astId": 1423,
        "contract": "contracts/reslover.sol:DIDDocument",
        "label": "contexts",
        "offset": 0,
        "slot": "2",
        "type": "t_mapping(t_bytes32,t_bytes_storage)"
      },
      {
        "astId": 1428,
        "contract": "contracts/reslover.sol:DIDDocument",
        "label": "controllerSet",
        "offset": 0,
        "slot": "3",
        "type": "t_mapping(t_string_memory_ptr,t_struct(Bytes32Set)204_storage)"
      },
      {
        "astId": 1432,
        "contract": "contracts/reslover.sol:DIDDocument",
        "label": "controllers",
        "offset": 0,
        "slot": "4",
        "type": "t_mapping(t_bytes32,t_string_storage)"
      },
      {
        "astId": 1436,
        "contract": "contracts/reslover.sol:DIDDocument",
        "label": "controllerPKs",
        "offset": 0,
        "slot": "5",
        "type": "t_mapping(t_bytes32,t_bytes_storage)"
      },
      {
        "astId": 1442,
        "contract": "contracts/reslover.sol:DIDDocument",
        "label": "verificationMethods",
        "offset": 0,
        "slot": "6",
        "type": "t_mapping(t_string_memory_ptr,t_mapping(t_bytes32,t_bytes_storage))"
      },
      {
        "astId": 1447,
        "contract": "contracts/reslover.sol:DIDDocument",
        "label": "verificationMethodIds",
        "offset": 0,
        "slot": "7",
        "type": "t_mapping(t_string_memory_ptr,t_struct(Bytes32Set)204_storage)"
      },
      {
        "astId": 1452,
        "contract": "contracts/reslover.sol:DIDDocument",
        "label": "authenticationSet",
        "offset": 0,
        "slot": "8",
        "type": "t_mapping(t_string_memory_ptr,t_struct(Bytes32Set)204_storage)"
      },
      {
        "astId": 1456,
        "contract": "contracts/reslover.sol:DIDDocument",
        "label": "authentications",
        "offset": 0,
        "slot": "9",
        "type": "t_mapping(t_bytes32,t_bytes_storage)"
      },
      {
        "astId": 1461,
        "contract": "contracts/reslover.sol:DIDDocument",
        "label": "assertionSet",
        "offset": 0,
        "slot": "10",
        "type": "t_mapping(t_string_memory_ptr,t_struct(Bytes32Set)204_storage)"
      },
      {
        "astId": 1465,
        "contract": "contracts/reslover.sol:DIDDocument",
        "label": "assertions",
        "offset": 0,
        "slot": "11",
        "type": "t_mapping(t_bytes32,t_bytes_storage)"
      }
    ],
    "types": {
      "t_array(t_bytes32)dyn_storage": {
        "base": "t_bytes32",
        "encoding": "dynamic_array",
        "label": "bytes32[]",
        "numberOfBytes": "32"
      },
      "t_bool": {
        "encoding": "inplace",
        "label": "bool",
        "numberOfBytes": "1"
      },
      "t_bytes32": {
        "encoding": "inplace",
        "label": "bytes32",
        "numberOfBytes": "32"
      },
      "t_bytes_storage": {
        "encoding": "bytes",
        "label": "bytes",
        "numberOfBytes": "32"
      },
      "t_mapping(t_bytes32,t_bytes_storage)": {
        "encoding": "mapping",
        "key": "t_bytes32",
        "label": "mapping(bytes32 => bytes)",
        "numberOfBytes": "32",
        "value": "t_bytes_storage"
      },
      "t_mapping(t_bytes32,t_string_storage)": {
        "encoding": "mapping",
        "key": "t_bytes32",
        "label": "mapping(bytes32 => string)",
        "numberOfBytes": "32",
        "value": "t_string_storage"
      },
      "t_mapping(t_bytes32,t_uint256)": {
        "encoding": "mapping",
        "key": "t_bytes32",
        "label": "mapping(bytes32 => uint256)",
        "numberOfBytes": "32",
        "value": "t_uint256"
      },
      "t_mapping(t_string_memory_ptr,t_bool)": {
        "encoding": "mapping",
        "key": "t_string_memory_ptr",
        "label": "mapping(string => bool)",
        "numberOfBytes": "32",
        "value": "t_bool"
      },
      "t_mapping(t_string_memory_ptr,t_mapping(t_bytes32,t_bytes_storage))": {
        "encoding": "mapping",
        "key": "t_string_memory_ptr",
        "label": "mapping(string => mapping(bytes32 => bytes))",
        "numberOfBytes": "32",
        "value": "t_mapping(t_bytes32,t_bytes_storage)"
      },
      "t_mapping(t_string_memory_ptr,t_struct(Bytes32Set)204_storage)": {
        "encoding": "mapping",
        "key": "t_string_memory_ptr",
        "label": "mapping(string => struct EnumerableSetUpgradeable.Bytes32Set)",
        "numberOfBytes": "32",
        "value": "t_struct(Bytes32Set)204_storage"
      },
      "t_string_memory_ptr": {
        "encoding": "bytes",
        "label": "string",
        "numberOfBytes": "32"
      },
      "t_string_storage": {
        "encoding": "bytes",
        "label": "string",
        "numberOfBytes": "32"
      },
      "t_struct(Bytes32Set)204_storage": {
        "encoding": "inplace",
        "label": "struct EnumerableSetUpgradeable.Bytes32Set",
        "members": [
          {
            "astId": 203,
            "contract": "contracts/reslover.sol:DIDDocument",
            "label": "_inner",
            "offset": 0,
            "slot": "0",
            "type": "t_struct(Set)10_storage"
          }
        ],
        "numberOfBytes": "64"
      },
      "t_struct(Set)10_storage": {
        "encoding": "inplace",
        "label": "struct EnumerableSetUpgradeable.Set",
        "members": [
          {
            "astId": 5,
            "contract": "contracts/reslover.sol:DIDDocument",
            "label": "_values",
            "offset": 0,
            "slot": "0",
            "type": "t_array(t_bytes32)dyn_storage"
          },
          {
            "astId": 9,
            "contract": "contracts/reslover.sol:DIDDocument",
            "label": "_indexes",
            "offset": 0,
            "slot": "1",
            "type": "t_mapping(t_bytes32,t_uint256)"
          }
        ],
        "numberOfBytes": "64"
      },
      "t_uint256": {
        "encoding": "inplace",
        "label": "uint256",
        "numberOfBytes": "32"
      }
    }
  }
}